:03000000020BCF21
:0C0BCF00787FE4F6D8FD75813B020C161F
:100CB700C10006250000000000000421000000001C
:100CC7000C2B414443206368616E6E656C000437EA
:040CD700206D560036
:100C5B00E4F5A0C282C280C2817F38FE120D6812F9
:100C6B000CDC7F067E00120D68120CDC7F0C7E0004
:100C7B00120D68120CDC7F017E00120D68120CDC69
:070C8B007F807E00020D686E
:040CDC007F047E0013
:100CE000E4FDFCC3ED9FEC9E5015E4FBFA0BBB004A
:0F0CF000010ABA01F8BB7EF50DBD00010C80E4CE
:010CFF0022D2
:100B29008E108F118B128A1389147C277D10120A5B
:100B390012EF24301209DEAE10AF117C277D10129E
:100B49000A127E037FE8CFCDCFCECCCE120A12EFA8
:100B59002430AB12AA13A9149000011209F0AE10A7
:100B6900AF117C037DE8120A127E007F64CFCDCFDE
:100B7900CECCCE120A12EF2430AB12AA13A91490CC
:100B890000021209F0AE10AF117C007D64120A1246
:100B99007E007F0ACFCDCFCECCCE120A12EF243001
:100BA900AB12AA13A9149000031209F0AE10AF11E9
:100BB9007C007D0A120A12ED2430AB12AA13A91483
:060BC9009000040209F097
:100D6800C280C281D2828FA07F0A7E00120CE0C2AC
:020D78008222D5
:100D7A00D280C281D2828FA07F0A7E00120CE0C28A
:020D8A008222C3
:100C92008B108A118912AB10AA11A9121209C56010
:100CA200130512E5127002051114F91209C5FF129B
:050CB2000D7A80E22232
:100D3C0043C31043C32043C30353C37F53C3F34381
:090D4C00B10443A88043C3402216
:040D0000AD07AC0689
:100D0400C2008CC53000FDAF3BC2008DC53000FD74
:0B0D1400EFFE7C00E4253BFFEC3EFE00
:010D1F0022B1
:03004B00020D2083
:100D2000C0E0C0D075D000C007AFC4EF248070050C
:0C0D300085C53BD200D007D0D0D0E03207
:030D8C00D29422DC
:100D5500C294120D00D294EF7806CEC313CE13D8E9
:020D6500F9FF94
:010D67002269
:100A7500E4F508F509F50AF50BF50CF50DF50E7518
:100A85000F0C120D3C120D8C120C5BC3E50F940973
:100A9500E50E94005006750E00750F0DE50F240147
:100AA500FFE4350EFE7B007A007921120B297F8049
:100AB5007E00120D687B007A00792B120C927B0068
:100AC5007A007921120C92E50F7F00C454F0FE12D2
:100AD5000D558E0A8F0BAC0AAD0BE412090B7B9DED
:100AE5007A73794E78401208001209448E0A8F0BEA
:100AF5007B007A007925120B297FC07E00120D68D4
:100B05007B007A007925120C927B007A00793712E6
:100B15000C927FD07E07120CE0E50F150F700215C1
:040B25000E020A9022
:10080000EC4D6011E8497017ED33EC3304600DE4F2
:10081000FCFFFEFD22E933E8330470F80209B01250
:10082000097B58046009E4CC248150062850090251
:1008300009BA2840030209B7C0E0EB4A7044B98006
:1008400006D0E0FB0209A6EF4E701CBD8008EBFF4E
:10085000EAFEE9FD80EBE98DF0A4FEE5F00208E98F
:10086000E9CDF9EAFEEBFFEF89F0A4FCE5F0CE89D3
:10087000F0A42EFFE435F0CD89F0A42DFEE435F090
:100880008067EF4E7005BD80D780C3EF8BF0A4ACBE
:10089000F0EE8BF0A42CFCE435F0F8EF8AF0A42CF9
:1008A000E5F038FCE433CB8DF0A42CFCE5F03BF80C
:1008B000EE8AF0A42CFCE5F038F8E433CF89F0A4FC
:1008C0002CFCE5F038CF3400CE89F0A42FFFE5F002
:1008D0003EFEE433C98DF0A42EFEE5F039CD8AF05A
:1008E000A42FFFE5F03EFEE43DFD33D0E0FB5007D2
:1008F0000BBB000F0209BAEC2CFCEF33FFEE33FE0A
:06090000ED33FD02099237
:1009060075F020800E75F010800575F0087D007E6C
:10091600007F003392D530D503120A67EC334010BE
:10092600EF33FFEE33FEED33FDEC33FCD5F0ED2275
:0E093600E5F0247EA2D513CC92E7CDCEFF22B1
:10094400EDD2E7CD33EC3392D524814006E4FFFEAB
:10095400FDFC22FCE4CFCECDCC24E0501174FF800A
:10096400EDC3CC13CCCD13CDCE13CECF13CF0470A7
:07097400F030D5DE020A6736
:10097B00E9D2E7C933E833F892D5EDD2E7CD33ECC2
:07098B0033FC5002B2D5223B
:10099200EC30E7100FBF000C0EBE00080DBD0004C6
:1009A2000BEB6014A2D5EB13FCED92E7FD2274FF72
:1009B200FCFDFEFF22E480F8A2D574FF13FC7D80CB
:0309C200E480EFDF
:100BDB00020A75E493A3F8E493A34003F68001F2B1
:100BEB0008DFF48029E493A3F85407240CC8C3331B
:100BFB00C4540F4420C8834004F456800146F6DFEA
:100C0B00E4800B0102040810204080900CB7E47EB6
:100C1B00019360BCA3FF543F30E509541FFEE493DE
:100C2B00A360010ECF54C025E060A840B8E493A3A5
:100C3B00FAE493A3F8E493A3C8C582C8CAC583CAD0
:100C4B00F0A3C8C582C8CAC583CADFE9DEE780BE88
:010CDB000018
:1009C500BB010689828A83E0225002E722BBFE0230
:0909D500E32289828A83E4932263
:1009DE00BB010689828A83F0225002F722BBFE01F8
:0209EE00F322F2
:1009F000F8BB010DE58229F582E5833AF583E8F03D
:100A0000225006E92582C8F622BBFE05E92582C8E8
:020A1000F222D0
:100A1200BC000BBE0029EF8DF084FFADF022E4CCC8
:100A2200F875F008EF2FFFEE33FEEC33FCEE9DEC91
:100A3200984005FCEE9DFE0FD5F0E9E4CEFD22EDD7
:100A4200F8F5F0EE8420D21CFEADF075F008EF2F21
:100A5200FFED33FD4007985006D5F0F222C398FD12
:050A62000FD5F0EA22AF
:0E0A6700C3E49FFFE49EFEE49DFDE49CFC22A0
:00000001FF
