:03000000020200F9
:1002000075A000759000518951BE51BE512C51BE50
:1002100051BE51BE7485516951BE788051B051BEF6
:1002200074C3516951BE788551B080FE75A038C243
:1002300080C281D28251BEC28251BE75A00CC280E2
:10024000C281D28251BEC28251BE75A001C280C29B
:1002500081D28251BEC28251BE75A006C280C281C7
:10026000D28251BEC28251BE22F5A0C280C281D2CA
:100270008251BEC28251BE22F5A0D280C281D282FA
:1002800051BEC28251BE51BE22C000788076530852
:10029000765508764D0876520876490876540876E1
:1002A00030087630087635087631087600D000229E
:1002B000C000E4E6600551780880F7D00022C00055
:0F02C000C001780179FFD9FED8FAD001D0002211
:1003000050742D35310049495420426F6D62617936
:0103100000EC
:00000001FF
