:0300000002011EDC
:10005000C0D0C001C002C000C003C005C004FB5432
:100060000FFCEB54F0C4FD24F640025006ED24379B
:10007000FD8004ED2430FDEC24F640025006EC2413
:1000800037FC8004EC2430FCED8CF0D004D005D09B
:1000900003D000D002D001D0D022C0D0C001C00215
:1000A000C003C004C005C00775900F74F04590F5FB
:1000B000901200F5E590540FF6C4440FF59012002D
:1000C000F5D007D005D004D003D002D001D0D02283
:1000D000C0D0C001C002C003C004C005C007AB4F00
:1000E000E54EC44BF550D007D005D004D003D00264
:1000F000D001D0D022C0D0C001C002C003C004C013
:10010000057C0A7B327A647964D9FEDAFADBF6DCA4
:10011000F2D005D004D003D002D001D0D02275A0F7
:10012000007590FF31ED31ED3182784E75602A1106
:100130009A08119A1811D031ED31ED31ED748131F9
:10014000BF31ED9001FE31DF31ED31EDE550115061
:1001500031CE31ED31EDE5F031CE31ED31ED74C11F
:0A0160001201BF90020831DF31EDFB
:10016A0031EDA950E7115031ED31CE31ED31EDE5E8
:10017A00F031CE11F502012A75A038C280C281D2AF
:10018A008231EDC28231ED75A00CC280C281D28269
:10019A0031EDC28231ED75A001C280C281D28231B5
:1001AA00EDC28231ED75A006C280C281D28231EDE4
:1001BA00C28231ED22F5A0C280C281D28231EDC263
:1001CA008231ED22F5A0D280C281D28231EDC28283
:1001DA0031ED31ED22C0E0E493600531CEA380F722
:1001EA00D0E022C000C001780379FFD9FED8FAD046
:1001FA0001D000226C6F636174696F6E3A00636F9D
:08020A006E74656E74733A0016
:00000001FF
