:0300000002009A61
:10005000C0D0C001C002C000C003C005C004FB5432
:100060000FFCEB54F0C4FD24F640025006ED24379B
:10007000FD8004ED2430FDEC24F640025006EC2413
:1000800037FC8004EC2430FCED8CF0D004D005D09B
:1000900003D000D002D001D0D02275A0007590000E
:1000A0007811790A7A2A7BAD7CAB7D0E7FAA510844
:1000B0005108319D510851085108748131DA5108B5
:1000C00090024231FA5108C0F0115031E95108E56F
:1000D000F031E95108D0F0E5F0115031E95108E56F
:1000E000F031E95108E5D0115031E95108E5F0311E
:1000F000E9510874C131DA510890024931FA5108C6
:10010000E8115031E95108E5F031E95108E91150A1
:1001100031E95108E5F031E95108EA115031E9516E
:1001200008E5F031E9510851195108510851087496
:100130008231DA510890024F31FA5108EB115031F7
:10014000E95108E5F031E95108EC115031E9510865
:10015000E5F031E95108ED115031E95108E5F03190
:09016000E9510874C131DA5108BB
:1001690090025531FA5108EE115031E95108E5F084
:1001790031E95108EF115031E95108E5F031E95100
:1001890008E581115031E95108E5F031E95108518B
:100199001902009A75A038C280C281D2825108C260
:1001A90082510875A00CC280C281D2825108C282D4
:1001B900510875A001C280C281D2825108C2825100
:1001C9000875A006C280C281D2825108C282510834
:1001D90022F5A0C280C281D2825108C2825108226E
:1001E900F5A0D280C281D2825108C2825108510839
:1001F90022C0E0E493600531E9A380F7D0E022C092
:1002090000C001780379FFD9FED8FAD001D00022C5
:10021900C0D0C001C002C003C004C0057C057B3248
:100229007A647964D9FEDAFADBF6DCF2D005D00417
:10023900D003D002D001D0D02241425053573D00C3
:10024900523031323D00523334353D005236375346
:03025900503D0015
:00000001FF
