:03000000020108F2
:10005000C0D0C001C002C003C00479FF7AC87AC80A
:1000600079FFD9FEDAFADBF6D004D003D002D00152
:10007000D0D022D293D292D291D290D297D296D28D
:1000800095D2947B64120050C297C296C295C294D6
:100090007B14120050E590540F23232323F5907B0B
:1000A0002812005022E418E6232323230886F05365
:1000B000F00F25F022E4E590F5F0540FB40F09D2CB
:1000C00097D296D295D2942212007303030303F6BB
:1000D000081200A508F622E4E5901200730303035A
:1000E00003F61200730303030308F61200A508F6D3
:1000F0002278511200D778541200D7E5538556F074
:1001000025F0F42401F557221200F17B281200504B
:100110008557907B28120050E55723232323F59021
:060120007B2812005022B2
:00000001FF
